:020000040000fa
:080000000002040000000000f2
:020000040000fa
:0400080030030000c1
:020000040000fa
:04000c0030030000bd
:020000040000fa
:0400100030030000b9
:020000040000fa
:0400140030030000b5
:020000040000fa
:0400180030030000b1
:020000040000fa
:04001c0030030000ad
:020000040000fa
:0400200030030000a9
:020000040000fa
:0400240030030000a5
:020000040000fa
:0400280030030000a1
:020000040000fa
:04002c00300300009d
:020000040000fa
:040030003003000099
:020000040000fa
:040034003003000095
:020000040000fa
:0400380008030000b9
:020000040000fa
:04003c00300300008d
:020000040000fa
:040040003003000089
:020000040000fa
:040044003003000085
:020000040000fa
:040048003003000081
:020000040000fa
:04004c00300300007d
:020000040000fa
:040050003003000079
:020000040000fa
:040054003003000075
:020000040000fa
:040058003003000071
:020000040000fa
:04005c00000300009d
:020000040000fa
:040060003003000069
:020000040000fa
:040064003003000065
:020000040000fa
:040068003003000061
:020000040000fa
:04006c00300300005d
:020000040000fa
:040070003003000059
:020000040000fa
:040074003003000055
:020000040000fa
:040078003003000051
:020000040000fa
:04007c00300300004d
:020000040000fa
:040080003003000049
:020000040000fa
:040084003003000045
:020000040000fa
:040088003003000041
:020000040000fa
:04008c00300300003d
:020000040000fa
:040090003003000039
:020000040000fa
:040094003003000035
:020000040000fa
:040098003003000031
:020000040000fa
:04009c00300300002d
:020000040000fa
:0400a0003003000029
:020000040000fa
:0400a4003003000025
:020000040000fa
:0400a8003003000021
:020000040000fa
:0400ac00300300001d
:020000040000fa
:0400b0003003000019
:020000040000fa
:0400b4003003000015
:020000040000fa
:0400b8003003000011
:020000040000fa
:0400bc00300300000d
:020000040000fa
:0400c0003003000009
:020000040000fa
:0400c4003003000005
:020000040000fa
:0400c8003003000001
:020000040000fa
:0400cc0030030000fd
:020000040000fa
:0400d00030030000f9
:020000040000fa
:0400d40030030000f5
:020000040000fa
:0400d80030030000f1
:020000040000fa
:0400dc0030030000ed
:020000040000fa
:0400e00030030000e9
:020000040000fa
:0400e40030030000e5
:020000040000fa
:0400e80030030000e1
:020000040000fa
:0400ec0030030000dd
:020000040000fa
:0400f00030030000d9
:020000040000fa
:0400f40030030000d5
:020000040000fa
:0400f80030030000d1
:020000040000fa
:0400fc0030030000cd
:020000040000fa
:0401000030030000c8
:020000040000fa
:0401040030030000c4
:020000040000fa
:0401080030030000c0
:020000040000fa
:04010c0030030000bc
:020000040000fa
:0401100030030000b8
:020000040000fa
:0401140030030000b4
:020000040000fa
:0401180030030000b0
:020000040000fa
:04011c0030030000ac
:020000040000fa
:0401200030030000a8
:020000040000fa
:0401240030030000a4
:020000040000fa
:0401280030030000a0
:020000040000fa
:04012c00300300009c
:020000040000fa
:040130003003000098
:020000040000fa
:040134003003000094
:020000040000fa
:040138003003000090
:020000040000fa
:04013c00300300008c
:020000040000fa
:040140003003000088
:020000040000fa
:040144003003000084
:020000040000fa
:040148003003000080
:020000040000fa
:04014c00300300007c
:020000040000fa
:040150003003000078
:020000040000fa
:040154003003000074
:020000040000fa
:040158003003000070
:020000040000fa
:04015c00300300006c
:020000040000fa
:04016000c8020000d1
:020000040000fa
:04016400f80200009d
:020000040000fa
:0402080030030000bf
:020000040000fa
:04020c0030030000bb
:020000040000fa
:0402100030030000b7
:020000040000fa
:0402140030030000b3
:020000040000fa
:0402180030030000af
:020000040000fa
:04021c0030030000ab
:020000040000fa
:0402200030030000a7
:020000040000fa
:0402240030030000a3
:020000040000fa
:04022800300300009f
:020000040000fa
:04022c00300300009b
:020000040000fa
:040230003003000097
:020000040000fa
:040234003003000093
:020000040000fa
:04023800300300008f
:020000040000fa
:04023c00300300008b
:020000040000fa
:040240003003000087
:020000040000fa
:040244003003000083
:020000040000fa
:04024800300300007f
:020000040000fa
:04024c00300300007b
:020000040000fa
:040250003003000077
:020000040000fa
:040254003003000073
:020000040000fa
:04025800300300006f
:020000040000fa
:04025c00300300006b
:020000040000fa
:040260003003000067
:020000040000fa
:040264003003000063
:020000040000fa
:04026800300300005f
:020000040000fa
:04026c00300300005b
:020000040000fa
:040270003003000057
:020000040000fa
:040274003003000053
:020000040000fa
:04027800300300004f
:020000040000fa
:04027c00300300004b
:020000040000fa
:040280003003000047
:020000040000fa
:040284003003000043
:020000040000fa
:04028800300300003f
:020000040000fa
:04028c00300300003b
:020000040000fa
:040290003003000037
:020000040000fa
:040294003003000033
:020000040000fa
:04029800300300002f
:020000040000fa
:04029c00300300002b
:020000040000fa
:0402a0003003000027
:020000040000fa
:0402a4003003000023
:020000040000fa
:0402a800300300001f
:020000040000fa
:0402ac00300300001b
:020000040000fa
:0402b0003003000017
:020000040000fa
:0402b4003003000013
:020000040000fa
:0402b800300300000f
:020000040000fa
:0402bc00300300000b
:020000040000fa
:0402c0003003000007
:020000040000fa
:0402c4003003000003
:020000040000fa
:0402c80030030000ff
:020000040000fa
:0402cc0030030000fb
:020000040000fa
:0402d00030030000f7
:020000040000fa
:0402d40030030000f3
:020000040000fa
:0402d80030030000ef
:020000040000fa
:0402dc0030030000eb
:020000040000fa
:0402e00030030000e7
:020000040000fa
:0402e40030030000e3
:020000040000fa
:0402e80030030000df
:020000040000fa
:0402ec0030030000db
:020000040000fa
:0402f00030030000d7
:020000040000fa
:0402f40030030000d3
:020000040000fa
:0402f80030030000cf
:020000040000fa
:0402fc0030030000cb
:020000040000fa
:0403000030030000c6
:020000040000fa
:0403040030030000c2
:020000040000fa
:0403080030030000be
:020000040000fa
:04030c0030030000ba
:020000040000fa
:0403100030030000b6
:020000040000fa
:0403140030030000b2
:020000040000fa
:0403180030030000ae
:020000040000fa
:04031c0030030000aa
:020000040000fa
:0403200030030000a6
:020000040000fa
:0403240030030000a2
:020000040000fa
:04032800300300009e
:020000040000fa
:04032c00300300009a
:020000040000fa
:040330003003000096
:020000040000fa
:040334003003000092
:020000040000fa
:04033800300300008e
:020000040000fa
:04033c00300300008a
:020000040000fa
:040340003003000086
:020000040000fa
:040344003003000082
:020000040000fa
:04034800300300007e
:020000040000fa
:04034c00300300007a
:020000040000fa
:040350003003000076
:020000040000fa
:040354003003000072
:020000040000fa
:04035800300300006e
:020000040000fa
:04035c00300300006a
:020000040000fa
:040360003003000066
:020000040000fa
:040364003003000062
:020000040000fa
:100400002f1222000e7e24000e0188000000000042
:10041000000020000000e000020032000001200087
:1004200020028800140007000d0107000000e00012
:1004300003003a00408c2000010020000200370039
:100440000000200001002000810f70000100320038
:1004500014000700000020000000e000020032004d
:100460000000020000000000320402000000000052
:100470000040da000000fe004440a9000000200017
:100480000000e0000300320000002000a00188000e
:100490004440a800000006008a1f78008b1f7800e7
:1004a0000000060091018800800478000000eb0045
:1004b0001a003700e284440032a0b4009905ba0063
:1004c000e284440032a0b4009906ba00e2844400f9
:1004d00032a0b4000006eb00476fde00fd07b2005b
:1004e000636ce10003003a00ebff07000000eb0043
:1004f0000a003700606ce10004003a00005deb0088
:100500008b05e900fdff3e00040037006168e10053
:10051000010032000086eb000b00070019c7ba008b
:100520001905ba000e04e00003003a000a00e000da
:10053000e0ff3a0000000600fe07b2009e018800be
:100540008a047800f5ff3700395dba008b05e900b1
:100550000c003200295dba008b05e900080032006a
:100560000c00e00003003a00e284440032a0b40032
:10057000f5ff370019ddba008b05e900faff3a00f4
:100580008904e800e184440032a0b40000000600c1
:100590003600f800809fbe00829fbe00849fbe0090
:1005a000869fbe000000fa00004080000000e800c6
:1005b000004088008dc0a900200322005f010700d1
:1005c0008000eb00a00020001c020700b01f880084
:1005d000f823ef000080fa004f03be004f02be0078
:1005e0004f01be004f00be003600f900004006007b
:1005f0000000fa008de0a9000080fa00004006002b
:100600000000fa0085a0a9000080fa000040060062
:10061000801f78003400f80000002000a00188004e
:100620000000fa00803f8200b0408800903f8200c6
:10063000c0408800a03f8200d0408800b03f8200c8
:10064000e0408800c03f8200f04088008480a9001c
:100650000080fa003400f9004f00780000400600e6
:100660000040da000000fe00008040000300380077
:10067000000028004200ae00f0ff27000000060046
:1006800000017800010028000000eb000110e700e5
:1006900000000600881f7800180020000010e60007
:1006a000f8ff2f000890b900120024000300280072
:1006b0000280e60000805100f28b22000200e1007f
:1006c00028003d00824826000281b9000400210074
:1006d00004014100e08149004d11de00431add00b4
:1006e000040071000001780050bb2600f1ff2700d4
:1006f0000110e7001a003700b0442900110028005b
:100700000110e600160037000293b9004f33de00f7
:10071000c13bdd0087017300c119dd000312b90080
:100720005155250001abb900c1bbde0007005100e7
:10073000032ab9004144240001abb900c5bbde0067
:1007400007004000032ab9007180260001abb90000
:100750000540200085834300cbbbde00070050002e
:100760003100370003002400008051008248260039
:100770000281b9000400210004014100e081490028
:100780004d11de00431add000400710011f02f004e
:10079000f20f20000100e100230035000200e1001b
:1007a00002003c00f0ff27001f0037000001780026
:1007b00001002800905224000110e7001a003700c1
:1007c000f1ff2700f0ff27000292b9004f22de0060
:1007d000c12add00050272004122dd0001a1b8003e
:1007e00007002800071bb9000700500003a1b8004c
:1007f00057552500071bb900c3bbde0007004000aa
:1008000003a1b80037d82200071bb900c7bbde0020
:100810000700500003a1b800070d2000071bb90016
:10082000c7bbde00070040000880b9004f04780015
:10083000000006000202b800020bb9000682420066
:10084000e0824b000383b8000388b90086004200b1
:1008500000804b00008042008000fd000000060088
:04086000000005008f
:020000040000fa
:100864000000fa00bb010700007f2000201c880064
:1008740081e3a800930007001228ef000b00370063
:1008840091408000800220000088b9008000780038
:1008940080052200008040008040eb000148780081
:1008a400904080000000e800904088009040800064
:1008b400e50f5000f2ff34001228ef000b00370060
:1008c40091408000800220000088b90080007800f8
:1008d4002005220000804000f1ff23000108780079
:1008e400904080000000e800904088009040800024
:1008f400e50f5000f2ff34001228ef000b00370020
:1009040091408000800220000088b90080007800b7
:1009140040052200008040008000eb0001087800c0
:10092400904080000000e8009040880090408000e3
:10093400e50f5000f2ff34001228ef000b003700df
:1009440091408000800220000088b9008000780077
:100954000005220000804000812025000108780065
:10096400904080000000e8009040880090408000a3
:10097400e50f5000f2ff34001228ef000b0037009f
:1009840091408000800220000088b9008000780037
:10099400400522000080400081df2a000108780021
:1009a400904080000000e800904088009040800063
:1009b400e50f5000f2ff34001228ef000b0037005f
:1009c40091408000800220000088b90080007800f7
:1009d40060042200008040008040eb000148780061
:1009e400904080000000e800904088009040800023
:1009f400e50f5000f2ff34001228ef000b0037001f
:100a040091408000800220000088b90080007800b6
:100a14008004220000804000418120000108780009
:100a2400904080000000e8009040880090408000e2
:100a3400e50f5000f2ff34006080200010028900ae
:100a44000000eb00200289001228ef000b003700a1
:100a540091408000800220000088b9008000780066
:100a640000042200008040008000eb0001087800b0
:100a7400904080000000e800904088009040800092
:100a8400e50f5000f2ff34000100370000000000c1
:100a940030408000000040004040880080892000f1
:100aa4003040880001408000005f2500808f5000a6
:100ab400f6ff34000028ef0010c0b30014e8b700bc
:100ac400f3ff37000200fa000000eb00000f78008b
:100ad4000000eb00000f78000b00370001e02f004e
:100ae4001e8040004600dd00e4fe07008080d10047
:100af4001e007800000140006082200000004100d8
:100b0400010878001e0fe800f03f20009e007800e6
:100b1400808f5000f1ff34000080fa0000000600ce
:100b24000200fa00000f78001e00780060009000b8
:100b34000080fa00000006000200fa00000f7800ae
:100b44001e00780030089000104078000004e00097
:100b5400060034001e00780011c0b30061609800e4
:100b64001e00780011c0b300415098001e007800a8
:100b7400606090000000fb00e10f50000a003200aa
:100b8400e20f50003c0032001e0078008000eb00b1
:100b9400610898001e0178006000b80040099800c0
:100ba400510998006b0037001e007800400990003e
:100bb400d00990001e00780070089000cf80de00fd
:100bc40002004000838048001e017800400998001c
:100bd400510998001e007800d00890004008900049
:100be4004409dd004c02de0004027100cc8ade0000
:100bf400840078001e007800610898001e007800c8
:100c0400d008900040089000e00f5000e08f58009a
:100c140009003d001e007800600890008000780004
:100c24000000280001007000800078001e00780099
:100c340061089800060037001e007800e008900064
:100c4400f0ff2700808060001e0078006108980093
:100c54001e007800e00890001e007800001090004c
:100c6400808f5000380035001e00780021c0b3008a
:100c740061609800370037001e007800400a900039
:100c8400d00a90001e00780010109000cf80de0083
:100c940004004000858048001e027800400a980045
:100ca400510a98001e007800d00890004008900077
:100cb400440add004c01de0002017200cc89de0032
:100cc400820078001e007800610898001e007800f9
:100cd400d008900040089000e00f5000e08f5800ca
:100ce40009003d001e007800600890008000780034
:100cf4000000280001007000800078001e007800c9
:100d040061089800060037001e007800e008900093
:100d1400f0ff2700808060001e00780061089800c2
:100d24001e007800e00890001e007800201090005b
:100d3400808f500006003d001e0078008040eb00cc
:100d440061609800030037000000000001003700d4
:100d5400000000001e007800606090000004e000c5
:100d640004003a001e0078008040eb0041509800d7
:100d7400040037001e007800300890008040eb002b
:100d8400014878001e007800e00890001e007800fa
:100d9400710098001e007800405090000000fb0095
:100da4000000e00004003a001e0078008000eb0020
:100db400610098001c0037001e00780010089000a5
:100dc400900078001e007800000890001000780061
:100dd40024fe07009e007800a00098001e00780002
:100de400200090008000eb00130007009e007800b4
:100df400a00098001e00780070009000cf80de00f4
:100e04001e017800220190006112b9000001be00a9
:100e14000400be0086fe0700800078001e007800f3
:100e240061009800000000001e007800600090003f
:100e34000080fa00000006000600fa00889fbe0049
:100e440010079800210798000000eb00000f7800bd
:100e54002e009000c200dd006002220000804000ed
:100e64001003be001e009000cf80de00f21a2200a4
:100e74000289b900020178006004b9008801780091
:100e840003014100f31a22000300b80001014100ec
:100e94008200780006004000878048002e01900000
:100ea400c211dd0062022200028141000089be00fd
:100eb4002e009000c200dd0060022200008040008d
:100ec4001000be00408ade00cf8ade00040f7800e6
:100ed4001e0078004680de00000f7800f03f2000fe
:100ee4009e007800808f5000020034000000eb0068
:100ef400000f7800f03f20001e00600080004000da
:100f04006082200000804000100078004f04be0082
:100f14000080fa00000006000400fa0010079800a0
:100f24001e0078000080fa00000006000200fa00ab
:100f3400000f78001e0078000080fa000000060010
:100f44000200fa00000f78001e0078000080fa000a
:100f5400000006000000fa00c9e2a900c9c2a90005
:100f6400c9a2a900c982a900c8c2a900ccc2a9000b
:100f7400213a800000fe2f0000806000203a8800a3
:100f840080022000303a8800213a8000f0f32f00dc
:100f940000806000203a88004827ef0012002000fb
:100fa40080072000a10920003374200080497800c4
:100fb40081497800824978001200200060042000f2
:100fc400710520002374200080497800814978004d
:100fd4008249780000000000113a800000002700d8
:100fe4008080600000002100808f5000faff3a00ea
:100ff40000000000113a8000000220000080600020
:101004000000e000fbff32004ba7a900513a80002a
:10101400f07f2e0000806000503a88004ae7a90063
:10102400513a80000070200001007000503a88009e
:10103400f2e3a800f3e3a800f243a900f343a900f4
:10104400f183a900811f800000f82f000080600058
:10105400b000b300801f8800f103a800f423ef0060
:101064008dc0a9008de0a9009dc0a8009de0a80046
:10107400f1e3a80001198000f0cf2f000080600088
:101084000080a0000019880001198000f0f12f00f1
:10109400008060000060a000001988002043a800c0
:1010a4002143a8002183a80011198000f0ff21002a
:1010b40000806000101988002343a80041198000b3
:1010c40000fe2f00008060004019880028e3a9007a
:1010d40025e3a900f0c3b30024e3b7002183a800eb
:1010e4001119800030fc2f00008060000040a00037
:1010f400101988009119800080ff2f000080600083
:1011040090198800f00120008019880000fc2f004d
:101114006019880085a0a90095a0a90021e3a80072
:101124000a21ef0040062000700888008500a9000d
:101134009500a90013e1a800011c8000f0fc2f0019
:10114400008060000050a000001c8800011c80008a
:10115400c0ff2f0000806000001c880000302000c9
:10116400401c880040002000501c8800d000200053
:10117400101c88008480a9009480a8000080fa00d4
:041184000000060061
:020000040000fa
:10118800160800000c19000000000000f0470000dd
:101198001000000000000000000800001600000019
:0811a80000000000000000003f
:020000040000fa
:0200000401f009
:04000000ffff0000fe
:020000040000fa
:0200000401f009
:04000400ffff0000fa
:020000040000fa
:0200000401f009
:04000800ffff0000f6
:020000040000fa
:0200000401f009
:04000c0001000000ef
:020000040000fa
:0200000401f009
:04001000a300000049
:020000040000fa
:0200000401f009
:040014005f00000089
:020000040000fa
:0200000401f009
:04001800f7000000ed
:020000040000fa
:0200000401f009
:04001c00dfff000002
:00000001FF
