:020000040000fa
:080000000002040000000000f2
:020000040000fa
:040008007003000081
:020000040000fa
:04000c00700300007d
:020000040000fa
:040010007003000079
:020000040000fa
:040014007003000075
:020000040000fa
:040018007003000071
:020000040000fa
:04001c00700300006d
:020000040000fa
:040020007003000069
:020000040000fa
:040024007003000065
:020000040000fa
:040028007003000061
:020000040000fa
:04002c00700300005d
:020000040000fa
:040030007003000059
:020000040000fa
:040034007003000055
:020000040000fa
:040038004803000079
:020000040000fa
:04003c00700300004d
:020000040000fa
:040040007003000049
:020000040000fa
:040044007003000045
:020000040000fa
:040048007003000041
:020000040000fa
:04004c00700300003d
:020000040000fa
:040050007003000039
:020000040000fa
:0400540000030000a5
:020000040000fa
:040058007003000031
:020000040000fa
:04005c00400300005d
:020000040000fa
:040060007003000029
:020000040000fa
:040064007003000025
:020000040000fa
:040068007003000021
:020000040000fa
:04006c00700300001d
:020000040000fa
:040070007003000019
:020000040000fa
:040074007003000015
:020000040000fa
:040078007003000011
:020000040000fa
:04007c00700300000d
:020000040000fa
:040080007003000009
:020000040000fa
:040084007003000005
:020000040000fa
:040088007003000001
:020000040000fa
:04008c0070030000fd
:020000040000fa
:0400900070030000f9
:020000040000fa
:0400940070030000f5
:020000040000fa
:0400980070030000f1
:020000040000fa
:04009c0070030000ed
:020000040000fa
:0400a00070030000e9
:020000040000fa
:0400a40070030000e5
:020000040000fa
:0400a80070030000e1
:020000040000fa
:0400ac0070030000dd
:020000040000fa
:0400b00070030000d9
:020000040000fa
:0400b40070030000d5
:020000040000fa
:0400b80070030000d1
:020000040000fa
:0400bc0070030000cd
:020000040000fa
:0400c00070030000c9
:020000040000fa
:0400c40070030000c5
:020000040000fa
:0400c80070030000c1
:020000040000fa
:0400cc0070030000bd
:020000040000fa
:0400d00070030000b9
:020000040000fa
:0400d40070030000b5
:020000040000fa
:0400d80070030000b1
:020000040000fa
:0400dc0070030000ad
:020000040000fa
:0400e00070030000a9
:020000040000fa
:0400e40070030000a5
:020000040000fa
:0400e80070030000a1
:020000040000fa
:0400ec00700300009d
:020000040000fa
:0400f0007003000099
:020000040000fa
:0400f4007003000095
:020000040000fa
:0400f8007003000091
:020000040000fa
:0400fc00700300008d
:020000040000fa
:040100007003000088
:020000040000fa
:040104007003000084
:020000040000fa
:040108007003000080
:020000040000fa
:04010c00700300007c
:020000040000fa
:040110007003000078
:020000040000fa
:040114007003000074
:020000040000fa
:040118007003000070
:020000040000fa
:04011c00700300006c
:020000040000fa
:040120007003000068
:020000040000fa
:040124007003000064
:020000040000fa
:040128007003000060
:020000040000fa
:04012c00700300005c
:020000040000fa
:040130007003000058
:020000040000fa
:040134007003000054
:020000040000fa
:040138007003000050
:020000040000fa
:04013c00700300004c
:020000040000fa
:040140007003000048
:020000040000fa
:040144007003000044
:020000040000fa
:040148007003000040
:020000040000fa
:04014c00700300003c
:020000040000fa
:040150007003000038
:020000040000fa
:040154007003000034
:020000040000fa
:040158007003000030
:020000040000fa
:04015c00700300002c
:020000040000fa
:04016000c8020000d1
:020000040000fa
:04016400380300005c
:020000040000fa
:04020800700300007f
:020000040000fa
:04020c00700300007b
:020000040000fa
:040210007003000077
:020000040000fa
:040214007003000073
:020000040000fa
:04021800700300006f
:020000040000fa
:04021c00700300006b
:020000040000fa
:040220007003000067
:020000040000fa
:040224007003000063
:020000040000fa
:04022800700300005f
:020000040000fa
:04022c00700300005b
:020000040000fa
:040230007003000057
:020000040000fa
:040234007003000053
:020000040000fa
:04023800700300004f
:020000040000fa
:04023c00700300004b
:020000040000fa
:040240007003000047
:020000040000fa
:040244007003000043
:020000040000fa
:04024800700300003f
:020000040000fa
:04024c00700300003b
:020000040000fa
:040250007003000037
:020000040000fa
:040254007003000033
:020000040000fa
:04025800700300002f
:020000040000fa
:04025c00700300002b
:020000040000fa
:040260007003000027
:020000040000fa
:040264007003000023
:020000040000fa
:04026800700300001f
:020000040000fa
:04026c00700300001b
:020000040000fa
:040270007003000017
:020000040000fa
:040274007003000013
:020000040000fa
:04027800700300000f
:020000040000fa
:04027c00700300000b
:020000040000fa
:040280007003000007
:020000040000fa
:040284007003000003
:020000040000fa
:0402880070030000ff
:020000040000fa
:04028c0070030000fb
:020000040000fa
:0402900070030000f7
:020000040000fa
:0402940070030000f3
:020000040000fa
:0402980070030000ef
:020000040000fa
:04029c0070030000eb
:020000040000fa
:0402a00070030000e7
:020000040000fa
:0402a40070030000e3
:020000040000fa
:0402a80070030000df
:020000040000fa
:0402ac0070030000db
:020000040000fa
:0402b00070030000d7
:020000040000fa
:0402b40070030000d3
:020000040000fa
:0402b80070030000cf
:020000040000fa
:0402bc0070030000cb
:020000040000fa
:0402c00070030000c7
:020000040000fa
:0402c40070030000c3
:020000040000fa
:0402c80070030000bf
:020000040000fa
:0402cc0070030000bb
:020000040000fa
:0402d00070030000b7
:020000040000fa
:0402d40070030000b3
:020000040000fa
:0402d80070030000af
:020000040000fa
:0402dc0070030000ab
:020000040000fa
:0402e00070030000a7
:020000040000fa
:0402e40070030000a3
:020000040000fa
:0402e800700300009f
:020000040000fa
:0402ec00700300009b
:020000040000fa
:0402f0007003000097
:020000040000fa
:0402f4007003000093
:020000040000fa
:0402f800700300008f
:020000040000fa
:0402fc00700300008b
:020000040000fa
:040300007003000086
:020000040000fa
:040304007003000082
:020000040000fa
:04030800700300007e
:020000040000fa
:04030c00700300007a
:020000040000fa
:040310007003000076
:020000040000fa
:040314007003000072
:020000040000fa
:04031800700300006e
:020000040000fa
:04031c00700300006a
:020000040000fa
:040320007003000066
:020000040000fa
:040324007003000062
:020000040000fa
:04032800700300005e
:020000040000fa
:04032c00700300005a
:020000040000fa
:040330007003000056
:020000040000fa
:040334007003000052
:020000040000fa
:04033800700300004e
:020000040000fa
:04033c00700300004a
:020000040000fa
:040340007003000046
:020000040000fa
:040344007003000042
:020000040000fa
:04034800700300003e
:020000040000fa
:04034c00700300003a
:020000040000fa
:040350007003000036
:020000040000fa
:040354007003000032
:020000040000fa
:04035800700300002e
:020000040000fa
:04035c00700300002a
:020000040000fa
:040360007003000026
:020000040000fa
:040364007003000022
:020000040000fa
:10040000cf1222000e7e24000e01880000000000a2
:10041000000020000000e000020032000001200087
:1004200020028800140007002d0107000000e000f2
:1004300003003a0060922000010020000200370013
:100440000000200001002000810f70000100320038
:1004500014000700000020000000e000020032004d
:100460000000020000000000720402000000000012
:100470000040da000000fe004440a9000000200017
:100480000000e0000300320000002000a00188000e
:100490004440a800000006008a1f78008b1f7800e7
:1004a0000000060091018800800478000000eb0045
:1004b0001a003700e284440032a0b4009905ba0063
:1004c000e284440032a0b4009906ba00e2844400f9
:1004d00032a0b4000006eb00476fde00fd07b2005b
:1004e000636ce10003003a00ebff07000000eb0043
:1004f0000a003700606ce10004003a00005deb0088
:100500008b05e900fdff3e00040037006168e10053
:10051000010032000086eb000b00070019c7ba008b
:100520001905ba000e04e00003003a000a00e000da
:10053000e0ff3a0000000600fe07b2009e018800be
:100540008a047800f5ff3700395dba008b05e900b1
:100550000c003200295dba008b05e900080032006a
:100560000c00e00003003a00e284440032a0b40032
:10057000f5ff370019ddba008b05e900faff3a00f4
:100580008904e800e184440032a0b40000000600c1
:100590003600f800809fbe00829fbe00849fbe0090
:1005a000869fbe000000fa00204080000000e800a6
:1005b000204088008dc0a900c003220081010700ef
:1005c000c04080004400dd00b01f8800c00322004e
:1005d00076010700014080000180b900000078002a
:1005e000c01f88000080fa004f03be004f02be000b
:1005f0004f01be004f00be003600f900004006006b
:10060000809fbe00829fbe003400f80000002000e2
:10061000a00188000000fa0003c8bf008000fb00b2
:1006200032118000824178004203220003f17800f9
:100630000040e80003e8b7003111800000102000fe
:10064000008060000000e000030032000368ef005b
:1006500010002000004088008560a9000080fa009a
:100660003400f9004f01be004f00be0000400600fc
:100670000000fa008de0a9000080fa0000400600aa
:100680000000fa0085a0a9000080fa0000400600e2
:10069000801f78003400f80000002000a0018800ce
:1006a0000000fa00803f8200c0408800903f820036
:1006b000d0408800a03f8200e0408800b03f820028
:1006c000f0408800c03f8200004188008480a9007b
:1006d0000080fa003400f9004f0078000040060066
:1006e0000040da000000fe000080400003003800f7
:1006f000000028004200ae00f0ff270000000600c6
:1007000000017800010028000000eb000110e70064
:1007100000000600881f7800180020000010e60086
:10072000f8ff2f000890b9001200240003002800f1
:100730000280e60000805100f28b22000200e100fe
:1007400028003d00824826000281b90004002100f3
:1007500004014100e08149004d11de00431add0033
:10076000040071000001780050bb2600f1ff270053
:100770000110e7001a003700b044290011002800da
:100780000110e600160037000293b9004f33de0077
:10079000c13bdd0087017300c119dd000312b90000
:1007a0005155250001abb900c1bbde000700510067
:1007b000032ab9004144240001abb900c5bbde00e7
:1007c00007004000032ab9007180260001abb90080
:1007d0000540200085834300cbbbde0007005000ae
:1007e00031003700030024000080510082482600b9
:1007f0000281b9000400210004014100e0814900a8
:100800004d11de00431add000400710011f02f00cd
:10081000f20f20000100e100230035000200e1009a
:1008200002003c00f0ff27001f00370000017800a5
:1008300001002800905224000110e7001a00370040
:10084000f1ff2700f0ff27000292b9004f22de00df
:10085000c12add00050272004122dd0001a1b800bd
:1008600007002800071bb9000700500003a1b800cb
:1008700057552500071bb900c3bbde000700400029
:1008800003a1b80037d82200071bb900c7bbde00a0
:100890000700500003a1b800070d2000071bb90096
:1008a000c7bbde00070040000880b9004f04780095
:1008b000000006000202b800020bb90006824200e6
:1008c000e0824b000383b8000388b9008600420031
:1008d00000804b00008042008000fd000000060008
:0408e000000005000f
:020000040000fa
:1008e4000000fa00bd010700007f2000201c8800e2
:1008f40081e3a800950007001428ef000b003700df
:10090400a1408000800220000088b90080007800a7
:1009140020062200008040008040eb00014878005f
:10092400a04080000000e800a0408800a0408000b3
:10093400e50f5000f2ff34001428ef000b003700dd
:10094400a1408000800220000088b9008000780067
:10095400c005220000804000f1ff23000108780058
:10096400a04080000000e800a0408800a040800073
:10097400e50f5000f2ff34001428ef000b0037009d
:10098400a1408000800220000088b9008000780027
:10099400e0052200008040008000eb0001087800a0
:1009a400a04080000000e800a0408800a040800033
:1009b400e50f5000f2ff34001428ef000b0037005d
:1009c400a1408000800220000088b90080007800e7
:1009d400a005220000804000812025000108780045
:1009e400a04080000000e800a0408800a0408000f3
:1009f400e50f5000f2ff34001428ef000b0037001d
:100a0400a1408000800220000088b90080007800a6
:100a1400e00522000080400081df2a000108780000
:100a2400a04080000000e800a0408800a0408000b2
:100a3400e50f5000f2ff34001428ef000b003700dc
:100a4400a1408000800220000088b9008000780066
:100a540000052200008040008040eb00014878003f
:100a6400a04080000000e800a0408800a040800072
:100a7400e50f5000f2ff34001428ef000b0037009c
:100a8400a1408000800220000088b9008000780026
:100a940020052200008040006181200001087800c8
:100aa400a04080000000e800a0408800a040800032
:100ab400e50f5000f2ff34008080200060028900be
:100ac400a0802000700289001428ef000b0037007a
:100ad400a1408000800220000088b90080007800d6
:100ae400a0042200008040008000eb000108780090
:100af400a04080000000e800a0408800a0408000e2
:100b0400e50f5000f2ff3400010037000000000040
:100b140040032200104078000000fb004200dd008a
:100b24005040880080892000404088002140800097
:100b3400005f2500808f5000f4ff34000428ef008c
:100b440010c0b30016e8b700f1ff37000200fa0046
:100b54000000eb00000f78000000eb00000f7800ad
:100b64000b00370001e02f001e8040004600dd002e
:100b7400e2fe07008080d1001e00780000014000e2
:100b84008082200000004100010878001e0fe80068
:100b9400f03f20009e007800808f5000f1ff340069
:100ba4000080fa00000006000200fa00000f78003e
:100bb4001e007800600090000080fa00000006002b
:100bc4000200fa00000f78001e0078003008900040
:100bd400104078000004e000060034001e00780095
:100be40011c0b300616098001e00780011c0b3000a
:100bf400415098001e007800606090000000fb00e7
:100c0400e10f50000a003200e20f50003c003200b5
:100c14001e0078008000eb00610898001e01780037
:100c24006000b80040099800510998006b00370033
:100c34001e00780040099000d00990001e00780042
:100c440070089000cf80de000200400083804800de
:100c54001e01780040099800510998001e00780090
:100c6400d0089000400890004409dd004c02de00ea
:100c740004027100cc8ade00840078001e00780033
:100c8400610898001e007800d00890004008900089
:100c9400e00f5000e08f580009003d001e0078006e
:100ca40060089000800078000000280001007000b7
:100cb400800078001e007800610898000600370064
:100cc4001e007800e0089000f0ff2700808060009c
:100cd4001e007800610898001e007800e00890006b
:100ce4001e00780000109000808f500038003500fe
:100cf4001e00780021c0b3006160980037003700ff
:100d04001e007800400a9000d00a90001e0078006f
:100d140010109000cf80de00040040008580480061
:100d24001e027800400a9800510a98001e007800bc
:100d3400d008900040089000440add004c01de0019
:100d440002017200cc89de00820078001e00780067
:100d5400610898001e007800d008900040089000b8
:100d6400e00f5000e08f580009003d001e0078009d
:100d740060089000800078000000280001007000e6
:100d8400800078001e007800610898000600370093
:100d94001e007800e0089000f0ff270080806000cb
:100da4001e007800610898001e007800e00890009a
:100db4001e00780020109000808f500006003d0037
:100dc4001e0078008040eb0061609800030037004b
:100dd4000000000001003700000000001e00780041
:100de400606090000004e00004003a001e007800f7
:100df4008040eb0041509800040037001e0078004a
:100e0400300890008040eb00014878001e00780014
:100e1400e00890001e007800710098001e00780021
:100e2400405090000000fb000000e00004003a0085
:100e34001e0078008000eb00610098001c00370061
:100e44001e00780010089000900078001e007800c2
:100e5400000890001000780022fe07009e00780031
:100e6400a00098001e007800200090008000eb0095
:100e7400130007009e007800a00098001e00780070
:100e840070009000cf80de001e01780022019000e7
:100e94006112b9000001be000400be0084fe070018
:100ea400800078001e0078006100980000000000b7
:100eb4001e007800600090000080fa000000060028
:100ec4000600fa00889fbe001007980021079800ca
:100ed4000000eb00000f78002e009000c200dd003f
:100ee40080022200008040001003be001e0090001b
:100ef400cf80de00f21a22000289b90002017800d4
:100f04006004b9008801780003014100f31a22004b
:100f14000300b8000101410082007800060040008f
:100f2400878048002e019000c211dd008202220059
:100f3400028141000089be002e009000c200dd0045
:100f440080022200008040001000be00408ade00c3
:100f5400cf8ade00040f78001e0078004680de0091
:100f6400000f7800f03f20009e007800808f500032
:100f7400020034000000eb00000f7800f03f200076
:100f84001e0060008000400080822000008040003d
:100f9400100078004f04be000080fa000000060034
:100fa4000400fa00100798001e0078000080fa0080
:100fb400000006000200fa00000f78001e0078000e
:100fc4000080fa00000006000200fa00000f78001a
:100fd4001e0078000080fa00000006000000fa00fd
:100fe400c9e2a900c9c2a900c9a2a900c982a9006d
:100ff400c8c2a900ccc2a9004407a9004427a8007c
:101004004447a9004467a9004487a9004607a900ea
:101014004627a8004647a8004667a8004687a800b8
:1010240046a7a90046c7a90046e7a9004707a900a3
:1010340044c7a90044e7a90000000000113a800059
:10104400000027008080600000002100808f500095
:10105400faff3a0000000000113a8000000220006c
:10106400008060000000e000fbff32004ba7a900f5
:10107400513a8000f07f2e0000806000503a8800d2
:101084004ae7a900513a8000007020000100700076
:10109400503a8800f2e3a800f3e3a800f243a90061
:1010a400f343a900f183a900811f800000f82f00f9
:1010b40000806000b000b300801f8800f103a80026
:1010c400f423ef008dc0a9008de0a9009dc0a80005
:1010d4009de0a800f1e3a80001198000f0cf2f00e3
:1010e400008060000080a0000019880001198000c1
:1010f400f0f12f00008060000060a000001988005b
:101104002043a8002143a8002183a80011198000ce
:10111400f0ff210000806000101988002343a8001c
:101124004119800000fe2f000080600040198800f3
:1011340028e3a90025e3a900f0c3b30024e3b70022
:101144002183a8001119800030fc2f00008060006a
:101154000040a000101988009119800080ff2f0022
:101164000080600090198800f00120008019880038
:1011740000fc2f006019880085a0a90095a0a90093
:1011840021e3a8000a21ef0040062000700888002f
:101194008500a9009500a90013e1a800011c8000a6
:1011a400f0fc2f00008060000050a000001c8800ac
:1011b400011c8000c0ff2f0000806000001c88001c
:1011c40000302000401c880040002000501c880093
:1011d400d0002000101c88008480a9009480a800fe
:1011e400c922a9002135800000fe2f000080600084
:1011f4009000b30020358800301020004011880092
:1012040011118000f0f32f0000806000101188009d
:1012140041058000f0ff28000080600000d0a0009d
:10122400400588008560a900001180006000b300bb
:101234000011880021e2a8008560a9009560a8003b
:081244000080fa000000060022
:020000040000fa
:10124c00180800001419000000000000000800003d
:10125c001800000000000000f04700001000000023
:08126c0000000000000000007a
:020000040000fa
:0200000401f009
:04000000ffff0000fe
:020000040000fa
:0200000401f009
:04000400ffff0000fa
:020000040000fa
:0200000401f009
:04000800ffff0000f6
:020000040000fa
:0200000401f009
:04000c0001000000ef
:020000040000fa
:0200000401f009
:04001000a300000049
:020000040000fa
:0200000401f009
:040014005f00000089
:020000040000fa
:0200000401f009
:04001800f7000000ed
:020000040000fa
:0200000401f009
:04001c00dfff000002
:00000001FF
